{
  "_format": "hh-sol-artifact-1",
  "contractName": "Platform",
  "sourceName": "contracts/Platform.sol",
  "abi": [
    {
      "inputs": [
        {
          "internalType": "address payable",
          "name": "artist",
          "type": "address"
        }
      ],
      "name": "addArtist",
      "outputs": [],
      "stateMutability": "nonpayable",
      "type": "function"
    },
    {
      "inputs": [
        {
          "internalType": "address",
          "name": "",
          "type": "address"
        }
      ],
      "name": "artistInteractions",
      "outputs": [
        {
          "internalType": "uint256",
          "name": "",
          "type": "uint256"
        }
      ],
      "stateMutability": "view",
      "type": "function"
    },
    {
      "inputs": [],
      "name": "deposit",
      "outputs": [],
      "stateMutability": "payable",
      "type": "function"
    },
    {
      "inputs": [],
      "name": "distributeFunds",
      "outputs": [],
      "stateMutability": "payable",
      "type": "function"
    },
    {
      "inputs": [],
      "name": "getContractBalance",
      "outputs": [
        {
          "internalType": "uint256",
          "name": "",
          "type": "uint256"
        }
      ],
      "stateMutability": "view",
      "type": "function"
    },
    {
      "inputs": [
        {
          "internalType": "address",
          "name": "artist",
          "type": "address"
        }
      ],
      "name": "incrementArtistInteraction",
      "outputs": [],
      "stateMutability": "nonpayable",
      "type": "function"
    },
    {
      "inputs": [],
      "name": "totalInteractions",
      "outputs": [
        {
          "internalType": "uint256",
          "name": "",
          "type": "uint256"
        }
      ],
      "stateMutability": "view",
      "type": "function"
    }
  ],
  "bytecode": "0x608060405234801561001057600080fd5b506107a8806100206000396000f3fe6080604052600436106100705760003560e01c8063761a64791161004e578063761a6479146100d35780637841b703146100fc578063a843651e14610139578063d0e30db01461016457610070565b80633a6a4d2e146100755780634d287f2b1461007f5780636f9fb98a146100a8575b600080fd5b61007d61016e565b005b34801561008b57600080fd5b506100a660048036038101906100a1919061052a565b610384565b005b3480156100b457600080fd5b506100bd61042f565b6040516100ca9190610570565b60405180910390f35b3480156100df57600080fd5b506100fa60048036038101906100f591906105c9565b610437565b005b34801561010857600080fd5b50610123600480360381019061011e91906105c9565b6104a7565b6040516101309190610570565b60405180910390f35b34801561014557600080fd5b5061014e6104bf565b60405161015b9190610570565b60405180910390f35b61016c6104c5565b005b600060028190555060005b60008054905081101561022e576001600080838154811061019d5761019c6105f6565b5b9060005260206000200160009054906101000a900473ffffffffffffffffffffffffffffffffffffffff1673ffffffffffffffffffffffffffffffffffffffff1673ffffffffffffffffffffffffffffffffffffffff16815260200190815260200160002054600260008282546102149190610654565b92505081905550808061022690610688565b915050610179565b5060006002544761023f91906106ff565b905060005b600080549050811015610380576000826001600080858154811061026b5761026a6105f6565b5b9060005260206000200160009054906101000a900473ffffffffffffffffffffffffffffffffffffffff1673ffffffffffffffffffffffffffffffffffffffff1673ffffffffffffffffffffffffffffffffffffffff168152602001908152602001600020546102db9190610730565b9050600081111561036c57600082815481106102fa576102f96105f6565b5b9060005260206000200160009054906101000a900473ffffffffffffffffffffffffffffffffffffffff1673ffffffffffffffffffffffffffffffffffffffff166108fc829081150290604051600060405180830381858888f1935050505015801561036a573d6000803e3d6000fd5b505b50808061037890610688565b915050610244565b5050565b6000600160008373ffffffffffffffffffffffffffffffffffffffff1673ffffffffffffffffffffffffffffffffffffffff168152602001908152602001600020819055506000819080600181540180825580915050600190039060005260206000200160009091909190916101000a81548173ffffffffffffffffffffffffffffffffffffffff021916908373ffffffffffffffffffffffffffffffffffffffff16021790555050565b600047905090565b600160008273ffffffffffffffffffffffffffffffffffffffff1673ffffffffffffffffffffffffffffffffffffffff168152602001908152602001600020600081548092919061048790610688565b91905055506002600081548092919061049f90610688565b919050555050565b60016020528060005260406000206000915090505481565b60025481565b565b600080fd5b600073ffffffffffffffffffffffffffffffffffffffff82169050919050565b60006104f7826104cc565b9050919050565b610507816104ec565b811461051257600080fd5b50565b600081359050610524816104fe565b92915050565b6000602082840312156105405761053f6104c7565b5b600061054e84828501610515565b91505092915050565b6000819050919050565b61056a81610557565b82525050565b60006020820190506105856000830184610561565b92915050565b6000610596826104cc565b9050919050565b6105a68161058b565b81146105b157600080fd5b50565b6000813590506105c38161059d565b92915050565b6000602082840312156105df576105de6104c7565b5b60006105ed848285016105b4565b91505092915050565b7f4e487b7100000000000000000000000000000000000000000000000000000000600052603260045260246000fd5b7f4e487b7100000000000000000000000000000000000000000000000000000000600052601160045260246000fd5b600061065f82610557565b915061066a83610557565b925082820190508082111561068257610681610625565b5b92915050565b600061069382610557565b91507fffffffffffffffffffffffffffffffffffffffffffffffffffffffffffffffff82036106c5576106c4610625565b5b600182019050919050565b7f4e487b7100000000000000000000000000000000000000000000000000000000600052601260045260246000fd5b600061070a82610557565b915061071583610557565b925082610725576107246106d0565b5b828204905092915050565b600061073b82610557565b915061074683610557565b925082820261075481610557565b9150828204841483151761076b5761076a610625565b5b509291505056fea2646970667358221220a1788e1edda7d7e4bb5625e7a4c4ada7919adaf9d9eef352ccbfba79c97fbdc164736f6c63430008110033",
  "linkReferences": {},
  "deployedLinkReferences": {}
}